{
    "contractName": "StableVault",
    "abi": [
        {
            "inputs": [],
            "stateMutability": "nonpayable",
            "type": "constructor"
        },
        {
            "anonymous": false,
            "inputs": [
                {
                    "indexed": true,
                    "internalType": "address",
                    "name": "owner",
                    "type": "address"
                },
                {
                    "indexed": true,
                    "internalType": "address",
                    "name": "spender",
                    "type": "address"
                },
                {
                    "indexed": false,
                    "internalType": "uint256",
                    "name": "amount",
                    "type": "uint256"
                }
            ],
            "name": "Approval",
            "type": "event"
        },
        {
            "anonymous": false,
            "inputs": [
                {
                    "indexed": true,
                    "internalType": "address",
                    "name": "from",
                    "type": "address"
                },
                {
                    "indexed": true,
                    "internalType": "address",
                    "name": "to",
                    "type": "address"
                },
                {
                    "indexed": false,
                    "internalType": "uint256",
                    "name": "amount",
                    "type": "uint256"
                },
                {
                    "indexed": false,
                    "internalType": "uint256",
                    "name": "shares",
                    "type": "uint256"
                }
            ],
            "name": "Deposit",
            "type": "event"
        },
        {
            "anonymous": false,
            "inputs": [
                {
                    "indexed": true,
                    "internalType": "address",
                    "name": "from",
                    "type": "address"
                },
                {
                    "indexed": true,
                    "internalType": "address",
                    "name": "to",
                    "type": "address"
                },
                {
                    "indexed": false,
                    "internalType": "uint256",
                    "name": "amount",
                    "type": "uint256"
                }
            ],
            "name": "Transfer",
            "type": "event"
        },
        {
            "anonymous": false,
            "inputs": [
                {
                    "indexed": true,
                    "internalType": "address",
                    "name": "from",
                    "type": "address"
                },
                {
                    "indexed": true,
                    "internalType": "address",
                    "name": "to",
                    "type": "address"
                },
                {
                    "indexed": false,
                    "internalType": "uint256",
                    "name": "amount",
                    "type": "uint256"
                },
                {
                    "indexed": false,
                    "internalType": "uint256",
                    "name": "shares",
                    "type": "uint256"
                }
            ],
            "name": "Withdraw",
            "type": "event"
        },
        {
            "stateMutability": "payable",
            "type": "fallback"
        },
        {
            "inputs": [],
            "name": "DOMAIN_SEPARATOR",
            "outputs": [
                {
                    "internalType": "bytes32",
                    "name": "",
                    "type": "bytes32"
                }
            ],
            "stateMutability": "view",
            "type": "function"
        },
        {
            "inputs": [],
            "name": "MAX_DEBT_RATIO",
            "outputs": [
                {
                    "internalType": "uint256",
                    "name": "",
                    "type": "uint256"
                }
            ],
            "stateMutability": "view",
            "type": "function"
        },
        {
            "inputs": [],
            "name": "PERMIT_TYPEHASH",
            "outputs": [
                {
                    "internalType": "bytes32",
                    "name": "",
                    "type": "bytes32"
                }
            ],
            "stateMutability": "view",
            "type": "function"
        },
        {
            "inputs": [
                {
                    "internalType": "address",
                    "name": "",
                    "type": "address"
                },
                {
                    "internalType": "address",
                    "name": "",
                    "type": "address"
                }
            ],
            "name": "allowance",
            "outputs": [
                {
                    "internalType": "uint256",
                    "name": "",
                    "type": "uint256"
                }
            ],
            "stateMutability": "view",
            "type": "function"
        },
        {
            "inputs": [
                {
                    "internalType": "address",
                    "name": "spender",
                    "type": "address"
                },
                {
                    "internalType": "uint256",
                    "name": "amount",
                    "type": "uint256"
                }
            ],
            "name": "approve",
            "outputs": [
                {
                    "internalType": "bool",
                    "name": "",
                    "type": "bool"
                }
            ],
            "stateMutability": "nonpayable",
            "type": "function"
        },
        {
            "inputs": [
                {
                    "internalType": "address",
                    "name": "user",
                    "type": "address"
                }
            ],
            "name": "assetsOf",
            "outputs": [
                {
                    "internalType": "uint256",
                    "name": "",
                    "type": "uint256"
                }
            ],
            "stateMutability": "view",
            "type": "function"
        },
        {
            "inputs": [],
            "name": "assetsPerShare",
            "outputs": [
                {
                    "internalType": "uint256",
                    "name": "",
                    "type": "uint256"
                }
            ],
            "stateMutability": "view",
            "type": "function"
        },
        {
            "inputs": [
                {
                    "internalType": "address",
                    "name": "",
                    "type": "address"
                }
            ],
            "name": "balanceOf",
            "outputs": [
                {
                    "internalType": "uint256",
                    "name": "",
                    "type": "uint256"
                }
            ],
            "stateMutability": "view",
            "type": "function"
        },
        {
            "inputs": [],
            "name": "decimals",
            "outputs": [
                {
                    "internalType": "uint8",
                    "name": "",
                    "type": "uint8"
                }
            ],
            "stateMutability": "view",
            "type": "function"
        },
        {
            "inputs": [
                {
                    "internalType": "uint256",
                    "name": "shares",
                    "type": "uint256"
                },
                {
                    "internalType": "address",
                    "name": "to",
                    "type": "address"
                },
                {
                    "internalType": "address",
                    "name": "from",
                    "type": "address"
                }
            ],
            "name": "defund",
            "outputs": [],
            "stateMutability": "nonpayable",
            "type": "function"
        },
        {
            "inputs": [
                {
                    "internalType": "uint256",
                    "name": "amount",
                    "type": "uint256"
                },
                {
                    "internalType": "address",
                    "name": "to",
                    "type": "address"
                }
            ],
            "name": "deposit",
            "outputs": [
                {
                    "internalType": "uint256",
                    "name": "stableCoinAmount",
                    "type": "uint256"
                }
            ],
            "stateMutability": "nonpayable",
            "type": "function"
        },
        {
            "inputs": [
                {
                    "internalType": "uint256",
                    "name": "amount",
                    "type": "uint256"
                },
                {
                    "internalType": "address",
                    "name": "to",
                    "type": "address"
                }
            ],
            "name": "fund",
            "outputs": [
                {
                    "internalType": "uint256",
                    "name": "shares",
                    "type": "uint256"
                }
            ],
            "stateMutability": "nonpayable",
            "type": "function"
        },
        {
            "inputs": [],
            "name": "getLatestPrice",
            "outputs": [
                {
                    "internalType": "int256",
                    "name": "",
                    "type": "int256"
                }
            ],
            "stateMutability": "view",
            "type": "function"
        },
        {
            "inputs": [
                {
                    "internalType": "address",
                    "name": "",
                    "type": "address"
                }
            ],
            "name": "maxDeposit",
            "outputs": [
                {
                    "internalType": "uint256",
                    "name": "",
                    "type": "uint256"
                }
            ],
            "stateMutability": "pure",
            "type": "function"
        },
        {
            "inputs": [
                {
                    "internalType": "address",
                    "name": "",
                    "type": "address"
                }
            ],
            "name": "maxMint",
            "outputs": [
                {
                    "internalType": "uint256",
                    "name": "",
                    "type": "uint256"
                }
            ],
            "stateMutability": "pure",
            "type": "function"
        },
        {
            "inputs": [
                {
                    "internalType": "address",
                    "name": "user",
                    "type": "address"
                }
            ],
            "name": "maxRedeem",
            "outputs": [
                {
                    "internalType": "uint256",
                    "name": "",
                    "type": "uint256"
                }
            ],
            "stateMutability": "view",
            "type": "function"
        },
        {
            "inputs": [
                {
                    "internalType": "address",
                    "name": "user",
                    "type": "address"
                }
            ],
            "name": "maxWithdraw",
            "outputs": [
                {
                    "internalType": "uint256",
                    "name": "",
                    "type": "uint256"
                }
            ],
            "stateMutability": "view",
            "type": "function"
        },
        {
            "inputs": [
                {
                    "internalType": "uint256",
                    "name": "amount",
                    "type": "uint256"
                },
                {
                    "internalType": "address",
                    "name": "to",
                    "type": "address"
                }
            ],
            "name": "mint",
            "outputs": [
                {
                    "internalType": "uint256",
                    "name": "stableCoinAmount",
                    "type": "uint256"
                }
            ],
            "stateMutability": "nonpayable",
            "type": "function"
        },
        {
            "inputs": [],
            "name": "name",
            "outputs": [
                {
                    "internalType": "string",
                    "name": "",
                    "type": "string"
                }
            ],
            "stateMutability": "view",
            "type": "function"
        },
        {
            "inputs": [
                {
                    "internalType": "address",
                    "name": "",
                    "type": "address"
                }
            ],
            "name": "nonces",
            "outputs": [
                {
                    "internalType": "uint256",
                    "name": "",
                    "type": "uint256"
                }
            ],
            "stateMutability": "view",
            "type": "function"
        },
        {
            "inputs": [
                {
                    "internalType": "address",
                    "name": "owner",
                    "type": "address"
                },
                {
                    "internalType": "address",
                    "name": "spender",
                    "type": "address"
                },
                {
                    "internalType": "uint256",
                    "name": "value",
                    "type": "uint256"
                },
                {
                    "internalType": "uint256",
                    "name": "deadline",
                    "type": "uint256"
                },
                {
                    "internalType": "uint8",
                    "name": "v",
                    "type": "uint8"
                },
                {
                    "internalType": "bytes32",
                    "name": "r",
                    "type": "bytes32"
                },
                {
                    "internalType": "bytes32",
                    "name": "s",
                    "type": "bytes32"
                }
            ],
            "name": "permit",
            "outputs": [],
            "stateMutability": "nonpayable",
            "type": "function"
        },
        {
            "inputs": [
                {
                    "internalType": "uint256",
                    "name": "amount",
                    "type": "uint256"
                }
            ],
            "name": "previewDeposit",
            "outputs": [
                {
                    "internalType": "uint256",
                    "name": "stableCoinAmount",
                    "type": "uint256"
                }
            ],
            "stateMutability": "view",
            "type": "function"
        },
        {
            "inputs": [
                {
                    "internalType": "uint256",
                    "name": "amount",
                    "type": "uint256"
                }
            ],
            "name": "previewMint",
            "outputs": [
                {
                    "internalType": "uint256",
                    "name": "volCoinAmount",
                    "type": "uint256"
                }
            ],
            "stateMutability": "view",
            "type": "function"
        },
        {
            "inputs": [
                {
                    "internalType": "uint256",
                    "name": "amount",
                    "type": "uint256"
                }
            ],
            "name": "previewRedeem",
            "outputs": [
                {
                    "internalType": "uint256",
                    "name": "amounts",
                    "type": "uint256"
                }
            ],
            "stateMutability": "view",
            "type": "function"
        },
        {
            "inputs": [
                {
                    "internalType": "uint256",
                    "name": "amount",
                    "type": "uint256"
                }
            ],
            "name": "previewWithdraw",
            "outputs": [
                {
                    "internalType": "uint256",
                    "name": "shares",
                    "type": "uint256"
                }
            ],
            "stateMutability": "view",
            "type": "function"
        },
        {
            "inputs": [
                {
                    "internalType": "uint256",
                    "name": "amountStable",
                    "type": "uint256"
                },
                {
                    "internalType": "address",
                    "name": "to",
                    "type": "address"
                },
                {
                    "internalType": "address",
                    "name": "from",
                    "type": "address"
                }
            ],
            "name": "redeem",
            "outputs": [
                {
                    "internalType": "uint256",
                    "name": "wethOut",
                    "type": "uint256"
                }
            ],
            "stateMutability": "nonpayable",
            "type": "function"
        },
        {
            "inputs": [
                {
                    "internalType": "address",
                    "name": "user",
                    "type": "address"
                }
            ],
            "name": "stableAssetsOf",
            "outputs": [
                {
                    "internalType": "uint256",
                    "name": "",
                    "type": "uint256"
                }
            ],
            "stateMutability": "view",
            "type": "function"
        },
        {
            "inputs": [],
            "name": "symbol",
            "outputs": [
                {
                    "internalType": "string",
                    "name": "",
                    "type": "string"
                }
            ],
            "stateMutability": "view",
            "type": "function"
        },
        {
            "inputs": [],
            "name": "totalAssets",
            "outputs": [
                {
                    "internalType": "uint256",
                    "name": "",
                    "type": "uint256"
                }
            ],
            "stateMutability": "view",
            "type": "function"
        },
        {
            "inputs": [],
            "name": "totalFloat",
            "outputs": [
                {
                    "internalType": "uint256",
                    "name": "",
                    "type": "uint256"
                }
            ],
            "stateMutability": "view",
            "type": "function"
        },
        {
            "inputs": [],
            "name": "totalSupply",
            "outputs": [
                {
                    "internalType": "uint256",
                    "name": "",
                    "type": "uint256"
                }
            ],
            "stateMutability": "view",
            "type": "function"
        },
        {
            "inputs": [
                {
                    "internalType": "address",
                    "name": "to",
                    "type": "address"
                },
                {
                    "internalType": "uint256",
                    "name": "amount",
                    "type": "uint256"
                }
            ],
            "name": "transfer",
            "outputs": [
                {
                    "internalType": "bool",
                    "name": "",
                    "type": "bool"
                }
            ],
            "stateMutability": "nonpayable",
            "type": "function"
        },
        {
            "inputs": [
                {
                    "internalType": "address",
                    "name": "from",
                    "type": "address"
                },
                {
                    "internalType": "address",
                    "name": "to",
                    "type": "address"
                },
                {
                    "internalType": "uint256",
                    "name": "amount",
                    "type": "uint256"
                }
            ],
            "name": "transferFrom",
            "outputs": [
                {
                    "internalType": "bool",
                    "name": "",
                    "type": "bool"
                }
            ],
            "stateMutability": "nonpayable",
            "type": "function"
        },
        {
            "inputs": [],
            "name": "volatile",
            "outputs": [
                {
                    "internalType": "contract VolatileToken",
                    "name": "",
                    "type": "address"
                }
            ],
            "stateMutability": "view",
            "type": "function"
        },
        {
            "inputs": [
                {
                    "internalType": "address",
                    "name": "user",
                    "type": "address"
                }
            ],
            "name": "volatileAssetsOf",
            "outputs": [
                {
                    "internalType": "uint256",
                    "name": "",
                    "type": "uint256"
                }
            ],
            "stateMutability": "view",
            "type": "function"
        },
        {
            "inputs": [],
            "name": "weth",
            "outputs": [
                {
                    "internalType": "contract IWETH9",
                    "name": "",
                    "type": "address"
                }
            ],
            "stateMutability": "view",
            "type": "function"
        },
        {
            "inputs": [
                {
                    "internalType": "uint256",
                    "name": "amountStable",
                    "type": "uint256"
                },
                {
                    "internalType": "address",
                    "name": "to",
                    "type": "address"
                },
                {
                    "internalType": "address",
                    "name": "from",
                    "type": "address"
                }
            ],
            "name": "withdraw",
            "outputs": [
                {
                    "internalType": "uint256",
                    "name": "wethOut",
                    "type": "uint256"
                }
            ],
            "stateMutability": "nonpayable",
            "type": "function"
        },
        {
            "stateMutability": "payable",
            "type": "receive"
        }
    ],
    "bytecode": "6101406040523480156200001257600080fd5b5060408051808201825260048152635352414960e01b60208083019182528351808501909452600384526253525560e81b9084015281519192916012916200005e9160009190620001e3565b50815162000074906001906020850190620001e3565b5060ff81166080524660a0526200008a62000147565b60c052505060405160129150620000a19062000272565b606080825260059082015264564f4c414960d81b608082015260a06020820181905260069082015265766f6c53525560d01b60c082015260ff909116604082015260e001604051809103906000f08015801562000102573d6000803e3d6000fd5b506001600160a01b031660e05273c02aaa39b223fe8d0a0e5c4f27ead9083c756cc261010052735f4ec3df9cbd43714fe2740f5e3616155c5b84196101205262000378565b60007f8b73c3c69bb8fe3d512ecc4cf759cc79239f7b179b0ffacaa9a75d522b39400f60006040516200017b9190620002d4565b6040805191829003822060208301939093528101919091527fc89efdaa54c0f20c7adf612882df0950f5a951637e0307cdcb4c672f298b8bc660608201524660808201523060a082015260c00160405160208183030381529060405280519060200120905090565b828054620001f19062000297565b90600052602060002090601f01602090048101928262000215576000855562000260565b82601f106200023057805160ff191683800117855562000260565b8280016001018555821562000260579182015b828111156200026057825182559160200191906001019062000243565b506200026e92915062000280565b5090565b6110808062001e2283390190565b5b808211156200026e576000815560010162000281565b600181811c90821680620002ac57607f821691505b60208210811415620002ce57634e487b7160e01b600052602260045260246000fd5b50919050565b600080835481600182811c915080831680620002f157607f831692505b60208084108214156200031257634e487b7160e01b86526022600452602486fd5b8180156200032957600181146200033b576200036a565b60ff198616895284890196506200036a565b60008a81526020902060005b86811015620003625781548b82015290850190830162000347565b505084890196505b509498975050505050505050565b60805160a05160c05160e0516101005161012051611a30620003f26000396000610b8c015260008181610417015281816106e401528181610a9401528181610c3a0152610ec20152600081816102d101526112f3015260006109d8015260006109a80152600081816103a7015261097e0152611a306000f3fe6080604052600436106102065760003560e01c80637ecebe0011610117578063c63d75b6116100a5578063d905777e1161006c578063d905777e1461032b578063dd62ed3e14610651578063e775eea514610689578063eee92395146106a9578063ef8b30f71461059157005b8063c63d75b614610439578063cdc1a3731461032b578063ce96cb77146105f1578063d505accf14610611578063d7e85f4e1461063157005b806395d89b41116100e957806395d89b411461055c578063a9059cbb14610571578063b3d7f6b914610591578063b460af94146105b1578063ba087652146105d157005b80637ecebe00146104e4578063841219e5146105115780638e15f4731461052757806394bf804d1461053c57005b8063313ce56711610194578063402d267d11610166578063402d267d146104395780634cdad5061461045b57806361fbccb51461047b5780636e553f651461049757806370a08231146104b757005b8063313ce5671461039557806335d16e17146103db5780633644e515146103f05780633fc8cef31461040557005b806318160ddd116101d857806318160ddd146102a95780631cb94174146102bf57806323b872dd1461030b5780632c62fa101461032b57806330adf81f1461036157005b806301e1d1141461020f57806306fdde0314610237578063095ea7b3146102595780630a28a4771461028957005b3661020d57005b005b34801561021b57600080fd5b506102246106cc565b6040519081526020015b60405180910390f35b34801561024357600080fd5b5061024c61075c565b60405161022e91906114d5565b34801561026557600080fd5b50610279610274366004611546565b6107ea565b604051901515815260200161022e565b34801561029557600080fd5b506102246102a4366004611570565b610857565b3480156102b557600080fd5b5061022460025481565b3480156102cb57600080fd5b506102f37f000000000000000000000000000000000000000000000000000000000000000081565b6040516001600160a01b03909116815260200161022e565b34801561031757600080fd5b50610279610326366004611589565b610894565b34801561033757600080fd5b506102246103463660046115c5565b6001600160a01b031660009081526003602052604090205490565b34801561036d57600080fd5b506102247f6e71edae12b1b97f4d1f60370fef10105fa2faae0126114a169c64845d6126c981565b3480156103a157600080fd5b506103c97f000000000000000000000000000000000000000000000000000000000000000081565b60405160ff909116815260200161022e565b3480156103e757600080fd5b50610224610974565b3480156103fc57600080fd5b506102246109a4565b34801561041157600080fd5b506102f37f000000000000000000000000000000000000000000000000000000000000000081565b34801561044557600080fd5b506102246104543660046115c5565b5060001990565b34801561046757600080fd5b50610224610476366004611570565b6109fa565b34801561048757600080fd5b50610224670b1a2bc2ec50000081565b3480156104a357600080fd5b506102246104b23660046115e0565b610a25565b3480156104c357600080fd5b506102246104d23660046115c5565b60036020526000908152604090205481565b3480156104f057600080fd5b506102246104ff3660046115c5565b60056020526000908152604090205481565b34801561051d57600080fd5b5061022460065481565b34801561053357600080fd5b50610224610b81565b34801561054857600080fd5b506102246105573660046115e0565b610c1b565b34801561056857600080fd5b5061024c610d27565b34801561057d57600080fd5b5061027961058c366004611546565b610d34565b34801561059d57600080fd5b506102246105ac366004611570565b610d9a565b3480156105bd57600080fd5b506102246105cc36600461160c565b610dc0565b3480156105dd57600080fd5b506102246105ec36600461160c565b610f40565b3480156105fd57600080fd5b5061022461060c3660046115c5565b611062565b34801561061d57600080fd5b5061020d61062c366004611648565b611080565b34801561063d57600080fd5b5061020d61064c36600461160c565b505050565b34801561065d57600080fd5b5061022461066c3660046116bb565b600460209081526000928352604080842090915290825290205481565b34801561069557600080fd5b506102246106a43660046115c5565b6112d1565b3480156106b557600080fd5b506102246106c43660046115e0565b600092915050565b6040516370a0823160e01b81523060048201526000907f00000000000000000000000000000000000000000000000000000000000000006001600160a01b0316906370a0823190602401602060405180830381865afa158015610733573d6000803e3d6000fd5b505050506040513d601f19601f8201168201806040525081019061075791906116e5565b905090565b60008054610769906116fe565b80601f0160208091040260200160405190810160405280929190818152602001828054610795906116fe565b80156107e25780601f106107b7576101008083540402835291602001916107e2565b820191906000526020600020905b8154815290600101906020018083116107c557829003601f168201915b505050505081565b3360008181526004602090815260408083206001600160a01b038716808552925280832085905551919290917f8c5be1e5ebec7d5bd14f71427d1e84f3dd0314c0f7b2291e5b200ac8c7c3b925906108459086815260200190565b60405180910390a35060015b92915050565b600080610862610b81565b905060025460001461088b5761087c6305f5e1008261174f565b610886908461174f565b61088d565b825b9392505050565b6001600160a01b038316600090815260046020908152604080832033845290915281205460001981146108f0576108cb8382611771565b6001600160a01b03861660009081526004602090815260408083203384529091529020555b6001600160a01b03851660009081526003602052604081208054859290610918908490611771565b90915550506001600160a01b03808516600081815260036020526040908190208054870190555190918716906000805160206119db833981519152906109619087815260200190565b60405180910390a3506001949350505050565b60006107576104767f0000000000000000000000000000000000000000000000000000000000000000600a61186c565b60007f000000000000000000000000000000000000000000000000000000000000000046146109d557610757611360565b507f000000000000000000000000000000000000000000000000000000000000000090565b6000600254600014610a2157610a1c610a116106cc565b6002548491906113fa565b610851565b5090565b6000610a3083610d9a565b905080610a725760405162461bcd60e51b815260206004820152600b60248201526a5a45524f5f53484152455360a81b60448201526064015b60405180910390fd5b6040516323b872dd60e01b8152336004820152306024820152604481018490527f00000000000000000000000000000000000000000000000000000000000000006001600160a01b0316906323b872dd906064016020604051808303816000875af1158015610ae5573d6000803e3d6000fd5b505050506040513d601f19601f82011682018060405250810190610b09919061187b565b610b1257600080fd5b8260066000828254610b24919061189d565b90915550610b3490508282611419565b60408051848152602081018390526001600160a01b0384169133917fdcbc1c05240f31ff3ad067ef1ee35ce4997762752e3a095284754544f4c709d791015b60405180910390a392915050565b6000806000806000807f00000000000000000000000000000000000000000000000000000000000000006001600160a01b031663feaf968c6040518163ffffffff1660e01b815260040160a060405180830381865afa158015610be8573d6000803e3d6000fd5b505050506040513d601f19601f82011682018060405250810190610c0c91906118cf565b50919998505050505050505050565b60405163a9059cbb60e01b8152306004820152602481018390526000907f00000000000000000000000000000000000000000000000000000000000000006001600160a01b03169063a9059cbb906044016020604051808303816000875af1158015610c8b573d6000803e3d6000fd5b505050506040513d601f19601f82011682018060405250810190610caf919061187b565b610cb857600080fd5b610ccd82610cc585610d9a565b925082611419565b8260066000828254610cdf919061189d565b909155505060408051828152602081018590526001600160a01b0384169133917fdcbc1c05240f31ff3ad067ef1ee35ce4997762752e3a095284754544f4c709d79101610b73565b60018054610769906116fe565b33600090815260036020526040812080548391908390610d55908490611771565b90915550506001600160a01b038316600081815260036020526040908190208054850190555133906000805160206119db833981519152906108459086815260200190565b600080610da5610b81565b905082610db66305f5e1008361174f565b61088d919061191f565b6001600160a01b0381166000818152600460209081526040808320338085529252822054919214801590610df657506000198114155b15610e2a57610e058582611771565b6001600160a01b03841660009081526004602090815260408083203384529091529020555b610e348386611473565b610e3d85610857565b91508160066000828254610e519190611771565b909155505060408051868152602081018490526001600160a01b0380871692908616917ff341246adaac6f497bc2a656f546ab9e182111d630394f0c57c710a59a2cb56791015b60405180910390a36040516323b872dd60e01b8152306004820152336024820152604481018390527f00000000000000000000000000000000000000000000000000000000000000006001600160a01b0316906323b872dd906064016020604051808303816000875af1158015610f13573d6000803e3d6000fd5b505050506040513d601f19601f82011682018060405250810190610f37919061187b565b50509392505050565b6001600160a01b0381166000818152600460209081526040808320338085529252822054919214801590610f7657506000198114155b15610faa57610f858582611771565b6001600160a01b03841660009081526004602090815260408083203384529091529020555b610fb3856109fa565b915081610ff05760405162461bcd60e51b815260206004820152600b60248201526a5a45524f5f41535345545360a81b6044820152606401610a69565b610ff9856109fa565b91506110058386611473565b81600660008282546110179190611771565b909155505060408051838152602081018790526001600160a01b0380871692908616917ff341246adaac6f497bc2a656f546ab9e182111d630394f0c57c710a59a2cb5679101610e98565b6001600160a01b038116600090815260036020526040812054610851565b428410156110d05760405162461bcd60e51b815260206004820152601760248201527f5045524d49545f444541444c494e455f455850495245440000000000000000006044820152606401610a69565b60006110da6109a4565b6001600160a01b0389811660008181526005602090815260409182902080546001810190915582517f6e71edae12b1b97f4d1f60370fef10105fa2faae0126114a169c64845d6126c98184015280840194909452938c166060840152608083018b905260a083019390935260c08083018a90528151808403909101815260e08301909152805192019190912061190160f01b6101008301526101028201929092526101228101919091526101420160408051601f198184030181528282528051602091820120600080855291840180845281905260ff88169284019290925260608301869052608083018590529092509060019060a0016020604051602081039080840390855afa1580156111f3573d6000803e3d6000fd5b5050604051601f1901519150506001600160a01b038116158015906112295750886001600160a01b0316816001600160a01b0316145b6112665760405162461bcd60e51b815260206004820152600e60248201526d24a72b20a624a22fa9a4a3a722a960911b6044820152606401610a69565b6001600160a01b0390811660009081526004602090815260408083208b8516808552908352928190208a905551898152919350918a16917f8c5be1e5ebec7d5bd14f71427d1e84f3dd0314c0f7b2291e5b200ac8c7c3b925910160405180910390a350505050505050565b6040516370a0823160e01b81526001600160a01b0382811660048301526000917f0000000000000000000000000000000000000000000000000000000000000000909116906370a0823190602401602060405180830381865afa15801561133c573d6000803e3d6000fd5b505050506040513d601f19601f8201168201806040525081019061085191906116e5565b60007f8b73c3c69bb8fe3d512ecc4cf759cc79239f7b179b0ffacaa9a75d522b39400f6000604051611392919061193e565b6040805191829003822060208301939093528101919091527fc89efdaa54c0f20c7adf612882df0950f5a951637e0307cdcb4c672f298b8bc660608201524660808201523060a082015260c00160405160208183030381529060405280519060200120905090565b82820281151584158583048514171661141257600080fd5b0492915050565b806002600082825461142b919061189d565b90915550506001600160a01b0382166000818152600360209081526040808320805486019055518481526000805160206119db83398151915291015b60405180910390a35050565b6001600160a01b0382166000908152600360205260408120805483929061149b908490611771565b90915550506002805482900390556040518181526000906001600160a01b038416906000805160206119db83398151915290602001611467565b600060208083528351808285015260005b81811015611502578581018301518582016040015282016114e6565b81811115611514576000604083870101525b50601f01601f1916929092016040019392505050565b80356001600160a01b038116811461154157600080fd5b919050565b6000806040838503121561155957600080fd5b6115628361152a565b946020939093013593505050565b60006020828403121561158257600080fd5b5035919050565b60008060006060848603121561159e57600080fd5b6115a78461152a565b92506115b56020850161152a565b9150604084013590509250925092565b6000602082840312156115d757600080fd5b61088d8261152a565b600080604083850312156115f357600080fd5b823591506116036020840161152a565b90509250929050565b60008060006060848603121561162157600080fd5b833592506116316020850161152a565b915061163f6040850161152a565b90509250925092565b600080600080600080600060e0888a03121561166357600080fd5b61166c8861152a565b965061167a6020890161152a565b95506040880135945060608801359350608088013560ff8116811461169e57600080fd5b9699959850939692959460a0840135945060c09093013592915050565b600080604083850312156116ce57600080fd5b6116d78361152a565b91506116036020840161152a565b6000602082840312156116f757600080fd5b5051919050565b600181811c9082168061171257607f821691505b6020821081141561173357634e487b7160e01b600052602260045260246000fd5b50919050565b634e487b7160e01b600052601160045260246000fd5b60008261176c57634e487b7160e01b600052601260045260246000fd5b500490565b60008282101561178357611783611739565b500390565b600181815b808511156117c35781600019048211156117a9576117a9611739565b808516156117b657918102915b93841c939080029061178d565b509250929050565b6000826117da57506001610851565b816117e757506000610851565b81600181146117fd576002811461180757611823565b6001915050610851565b60ff84111561181857611818611739565b50506001821b610851565b5060208310610133831016604e8410600b8410161715611846575081810a610851565b6118508383611788565b806000190482111561186457611864611739565b029392505050565b600061088d60ff8416836117cb565b60006020828403121561188d57600080fd5b8151801515811461088d57600080fd5b600082198211156118b0576118b0611739565b500190565b805169ffffffffffffffffffff8116811461154157600080fd5b600080600080600060a086880312156118e757600080fd5b6118f0866118b5565b9450602086015193506040860151925060608601519150611913608087016118b5565b90509295509295909350565b600081600019048311821515161561193957611939611739565b500290565b600080835481600182811c91508083168061195a57607f831692505b602080841082141561197a57634e487b7160e01b86526022600452602486fd5b81801561198e576001811461199f576119cc565b60ff198616895284890196506119cc565b60008a81526020902060005b868110156119c45781548b8201529085019083016119ab565b505084890196505b50949897505050505050505056feddf252ad1be2c89b69c2b068fc378daa952ba7f163c4a11628f55a4df523b3efa2646970667358221220ac0e66faf57eb0f05b77b5334590e43161e1cc951b630c4884a844a8050f510364736f6c634300080c003360e06040523480156200001157600080fd5b50604051620010803803806200108083398101604081905262000034916200029a565b82828282600090805190602001906200004f92919062000127565b5081516200006590600190602085019062000127565b5060ff81166080524660a0526200007b6200008b565b60c0525062000400945050505050565b60007f8b73c3c69bb8fe3d512ecc4cf759cc79239f7b179b0ffacaa9a75d522b39400f6000604051620000bf91906200035c565b6040805191829003822060208301939093528101919091527fc89efdaa54c0f20c7adf612882df0950f5a951637e0307cdcb4c672f298b8bc660608201524660808201523060a082015260c00160405160208183030381529060405280519060200120905090565b82805462000135906200031f565b90600052602060002090601f016020900481019282620001595760008555620001a4565b82601f106200017457805160ff1916838001178555620001a4565b82800160010185558215620001a4579182015b82811115620001a457825182559160200191906001019062000187565b50620001b2929150620001b6565b5090565b5b80821115620001b25760008155600101620001b7565b634e487b7160e01b600052604160045260246000fd5b600082601f830112620001f557600080fd5b81516001600160401b0380821115620002125762000212620001cd565b604051601f8301601f19908116603f011681019082821181831017156200023d576200023d620001cd565b816040528381526020925086838588010111156200025a57600080fd5b600091505b838210156200027e57858201830151818301840152908201906200025f565b83821115620002905760008385830101525b9695505050505050565b600080600060608486031215620002b057600080fd5b83516001600160401b0380821115620002c857600080fd5b620002d687838801620001e3565b94506020860151915080821115620002ed57600080fd5b50620002fc86828701620001e3565b925050604084015160ff811681146200031457600080fd5b809150509250925092565b600181811c908216806200033457607f821691505b602082108114156200035657634e487b7160e01b600052602260045260246000fd5b50919050565b600080835481600182811c9150808316806200037957607f831692505b60208084108214156200039a57634e487b7160e01b86526022600452602486fd5b818015620003b15760018114620003c357620003f2565b60ff19861689528489019650620003f2565b60008a81526020902060005b86811015620003ea5781548b820152908501908301620003cf565b505084890196505b509498975050505050505050565b60805160a05160c051610c506200043060003960006104e6015260006104b10152600061019c0152610c506000f3fe608060405234801561001057600080fd5b50600436106101005760003560e01c806370a0823111610097578063a9059cbb11610066578063a9059cbb14610248578063d505accf1461025b578063da46098c1461026e578063dd62ed3e146102a857600080fd5b806370a08231146101ed5780637ecebe001461020d57806395d89b411461022d5780639dc29fac1461023557600080fd5b806330adf81f116100d357806330adf81f14610170578063313ce567146101975780633644e515146101d057806340c10f19146101d857600080fd5b806306fdde0314610105578063095ea7b31461012357806318160ddd1461014657806323b872dd1461015d575b600080fd5b61010d6102d3565b60405161011a919061093f565b60405180910390f35b6101366101313660046109b0565b610361565b604051901515815260200161011a565b61014f60025481565b60405190815260200161011a565b61013661016b3660046109da565b6103cd565b61014f7f6e71edae12b1b97f4d1f60370fef10105fa2faae0126114a169c64845d6126c981565b6101be7f000000000000000000000000000000000000000000000000000000000000000081565b60405160ff909116815260200161011a565b61014f6104ad565b6101eb6101e63660046109b0565b610508565b005b61014f6101fb366004610a16565b60036020526000908152604090205481565b61014f61021b366004610a16565b60056020526000908152604090205481565b61010d610516565b6101eb6102433660046109b0565b610523565b6101366102563660046109b0565b61052d565b6101eb610269366004610a38565b610593565b6101eb61027c3660046109da565b6001600160a01b0392831660009081526004602090815260408083209490951682529290925291902055565b61014f6102b6366004610aab565b600460209081526000928352604080842090915290825290205481565b600080546102e090610ade565b80601f016020809104026020016040519081016040528092919081815260200182805461030c90610ade565b80156103595780601f1061032e57610100808354040283529160200191610359565b820191906000526020600020905b81548152906001019060200180831161033c57829003601f168201915b505050505081565b3360008181526004602090815260408083206001600160a01b038716808552925280832085905551919290917f8c5be1e5ebec7d5bd14f71427d1e84f3dd0314c0f7b2291e5b200ac8c7c3b925906103bc9086815260200190565b60405180910390a350600192915050565b6001600160a01b03831660009081526004602090815260408083203384529091528120546000198114610429576104048382610b2f565b6001600160a01b03861660009081526004602090815260408083203384529091529020555b6001600160a01b03851660009081526003602052604081208054859290610451908490610b2f565b90915550506001600160a01b0380851660008181526003602052604090819020805487019055519091871690600080516020610bfb8339815191529061049a9087815260200190565b60405180910390a3506001949350505050565b60007f000000000000000000000000000000000000000000000000000000000000000046146104e3576104de6107e9565b905090565b507f000000000000000000000000000000000000000000000000000000000000000090565b6105128282610883565b5050565b600180546102e090610ade565b61051282826108dd565b3360009081526003602052604081208054839190839061054e908490610b2f565b90915550506001600160a01b03831660008181526003602052604090819020805485019055513390600080516020610bfb833981519152906103bc9086815260200190565b428410156105e85760405162461bcd60e51b815260206004820152601760248201527f5045524d49545f444541444c494e455f4558504952454400000000000000000060448201526064015b60405180910390fd5b60006105f26104ad565b6001600160a01b0389811660008181526005602090815260409182902080546001810190915582517f6e71edae12b1b97f4d1f60370fef10105fa2faae0126114a169c64845d6126c98184015280840194909452938c166060840152608083018b905260a083019390935260c08083018a90528151808403909101815260e08301909152805192019190912061190160f01b6101008301526101028201929092526101228101919091526101420160408051601f198184030181528282528051602091820120600080855291840180845281905260ff88169284019290925260608301869052608083018590529092509060019060a0016020604051602081039080840390855afa15801561070b573d6000803e3d6000fd5b5050604051601f1901519150506001600160a01b038116158015906107415750886001600160a01b0316816001600160a01b0316145b61077e5760405162461bcd60e51b815260206004820152600e60248201526d24a72b20a624a22fa9a4a3a722a960911b60448201526064016105df565b6001600160a01b0390811660009081526004602090815260408083208b8516808552908352928190208a905551898152919350918a16917f8c5be1e5ebec7d5bd14f71427d1e84f3dd0314c0f7b2291e5b200ac8c7c3b925910160405180910390a350505050505050565b60007f8b73c3c69bb8fe3d512ecc4cf759cc79239f7b179b0ffacaa9a75d522b39400f600060405161081b9190610b46565b6040805191829003822060208301939093528101919091527fc89efdaa54c0f20c7adf612882df0950f5a951637e0307cdcb4c672f298b8bc660608201524660808201523060a082015260c00160405160208183030381529060405280519060200120905090565b80600260008282546108959190610be2565b90915550506001600160a01b038216600081815260036020908152604080832080548601905551848152600080516020610bfb83398151915291015b60405180910390a35050565b6001600160a01b03821660009081526003602052604081208054839290610905908490610b2f565b90915550506002805482900390556040518181526000906001600160a01b03841690600080516020610bfb833981519152906020016108d1565b600060208083528351808285015260005b8181101561096c57858101830151858201604001528201610950565b8181111561097e576000604083870101525b50601f01601f1916929092016040019392505050565b80356001600160a01b03811681146109ab57600080fd5b919050565b600080604083850312156109c357600080fd5b6109cc83610994565b946020939093013593505050565b6000806000606084860312156109ef57600080fd5b6109f884610994565b9250610a0660208501610994565b9150604084013590509250925092565b600060208284031215610a2857600080fd5b610a3182610994565b9392505050565b600080600080600080600060e0888a031215610a5357600080fd5b610a5c88610994565b9650610a6a60208901610994565b95506040880135945060608801359350608088013560ff81168114610a8e57600080fd5b9699959850939692959460a0840135945060c09093013592915050565b60008060408385031215610abe57600080fd5b610ac783610994565b9150610ad560208401610994565b90509250929050565b600181811c90821680610af257607f821691505b60208210811415610b1357634e487b7160e01b600052602260045260246000fd5b50919050565b634e487b7160e01b600052601160045260246000fd5b600082821015610b4157610b41610b19565b500390565b600080835481600182811c915080831680610b6257607f831692505b6020808410821415610b8257634e487b7160e01b86526022600452602486fd5b818015610b965760018114610ba757610bd4565b60ff19861689528489019650610bd4565b60008a81526020902060005b86811015610bcc5781548b820152908501908301610bb3565b505084890196505b509498975050505050505050565b60008219821115610bf557610bf5610b19565b50019056feddf252ad1be2c89b69c2b068fc378daa952ba7f163c4a11628f55a4df523b3efa2646970667358221220b3572ab8ff15106973e7d48214de3119b564e578a108ea24d857b469254b8e8d64736f6c634300080c0033",
    "sourcePath": "/home/user/SolidityProjects/stablecoin-fun/contracts/StableVault.sol",
    "compiler": {
        "name": "solc",
        "version": "0.8.12+commit.f00d7308"
    },
    "functionHashes": {
        "DOMAIN_SEPARATOR()": "3644e515",
        "MAX_DEBT_RATIO()": "61fbccb5",
        "PERMIT_TYPEHASH()": "30adf81f",
        "allowance(address,address)": "dd62ed3e",
        "approve(address,uint256)": "095ea7b3",
        "assetsOf(address)": "2c62fa10",
        "assetsPerShare()": "35d16e17",
        "balanceOf(address)": "70a08231",
        "decimals()": "313ce567",
        "defund(uint256,address,address)": "d7e85f4e",
        "deposit(uint256,address)": "6e553f65",
        "fund(uint256,address)": "eee92395",
        "getLatestPrice()": "8e15f473",
        "maxDeposit(address)": "402d267d",
        "maxMint(address)": "c63d75b6",
        "maxRedeem(address)": "d905777e",
        "maxWithdraw(address)": "ce96cb77",
        "mint(uint256,address)": "94bf804d",
        "name()": "06fdde03",
        "nonces(address)": "7ecebe00",
        "permit(address,address,uint256,uint256,uint8,bytes32,bytes32)": "d505accf",
        "previewDeposit(uint256)": "ef8b30f7",
        "previewMint(uint256)": "b3d7f6b9",
        "previewRedeem(uint256)": "4cdad506",
        "previewWithdraw(uint256)": "0a28a477",
        "redeem(uint256,address,address)": "ba087652",
        "stableAssetsOf(address)": "cdc1a373",
        "symbol()": "95d89b41",
        "totalAssets()": "01e1d114",
        "totalFloat()": "841219e5",
        "totalSupply()": "18160ddd",
        "transfer(address,uint256)": "a9059cbb",
        "transferFrom(address,address,uint256)": "23b872dd",
        "volatile()": "1cb94174",
        "volatileAssetsOf(address)": "e775eea5",
        "weth()": "3fc8cef3",
        "withdraw(uint256,address,address)": "b460af94"
    },
    "gasEstimates": {
        "creation": {
            "codeDepositCost": "1340800",
            "executionCost": "infinite",
            "totalCost": "infinite"
        },
        "external": {
            "": "208",
            "DOMAIN_SEPARATOR()": "infinite",
            "MAX_DEBT_RATIO()": "273",
            "PERMIT_TYPEHASH()": "318",
            "allowance(address,address)": "infinite",
            "approve(address,uint256)": "24591",
            "assetsOf(address)": "2638",
            "assetsPerShare()": "infinite",
            "balanceOf(address)": "2641",
            "decimals()": "infinite",
            "defund(uint256,address,address)": "infinite",
            "deposit(uint256,address)": "infinite",
            "fund(uint256,address)": "485",
            "getLatestPrice()": "infinite",
            "maxDeposit(address)": "392",
            "maxMint(address)": "392",
            "maxRedeem(address)": "2570",
            "maxWithdraw(address)": "2649",
            "mint(uint256,address)": "infinite",
            "name()": "infinite",
            "nonces(address)": "2554",
            "permit(address,address,uint256,uint256,uint8,bytes32,bytes32)": "infinite",
            "previewDeposit(uint256)": "infinite",
            "previewMint(uint256)": "infinite",
            "previewRedeem(uint256)": "infinite",
            "previewWithdraw(uint256)": "infinite",
            "redeem(uint256,address,address)": "infinite",
            "stableAssetsOf(address)": "2593",
            "symbol()": "infinite",
            "totalAssets()": "infinite",
            "totalFloat()": "2352",
            "totalSupply()": "2330",
            "transfer(address,uint256)": "infinite",
            "transferFrom(address,address,uint256)": "infinite",
            "volatile()": "infinite",
            "volatileAssetsOf(address)": "infinite",
            "weth()": "infinite",
            "withdraw(uint256,address,address)": "infinite"
        },
        "internal": {
            "afterDeposit(uint256)": "infinite",
            "beforeWithdraw(uint256)": "infinite"
        }
    }
}